{
  "contractName": "exportLicense",
  "abi": [
    {
      "constant": false,
      "inputs": [
        {
          "name": "id",
          "type": "uint256",
          "indexed": false
        },
        {
          "name": "exporter",
          "type": "address",
          "indexed": false
        },
        {
          "name": "exporterName",
          "type": "string",
          "indexed": false
        },
        {
          "name": "description",
          "type": "string",
          "indexed": false
        }
      ],
      "name": "licenseinfo",
      "outputs": [],
      "payable": false,
      "stateMutability": "nonpayable",
      "type": "event",
      "anonymous": false
    },
    {
      "constant": false,
      "inputs": [
        {
          "name": "_id",
          "type": "uint256"
        },
        {
          "name": "_exporter",
          "type": "address"
        },
        {
          "name": "_exporterName",
          "type": "string"
        },
        {
          "name": "_description",
          "type": "string"
        }
      ],
      "name": "setLicense",
      "outputs": [
        {
          "name": "",
          "type": "uint256"
        },
        {
          "name": "",
          "type": "address"
        },
        {
          "name": "",
          "type": "string"
        },
        {
          "name": "",
          "type": "string"
        }
      ],
      "payable": false,
      "stateMutability": "nonpayable",
      "type": "function"
    },
    {
      "constant": true,
      "inputs": [
        {
          "name": "_index",
          "type": "uint256"
        }
      ],
      "name": "getLicense",
      "outputs": [
        {
          "name": "",
          "type": "uint256"
        },
        {
          "name": "",
          "type": "address"
        },
        {
          "name": "",
          "type": "string"
        },
        {
          "name": "",
          "type": "string"
        }
      ],
      "payable": false,
      "stateMutability": "view",
      "type": "function"
    },
    {
      "constant": false,
      "inputs": [
        {
          "name": "_index",
          "type": "uint256"
        }
      ],
      "name": "checkIfValid",
      "outputs": [
        {
          "name": "",
          "type": "bool"
        }
      ],
      "payable": false,
      "stateMutability": "nonpayable",
      "type": "function"
    }
  ],
  "bytecode": "0x6080604052600060015534801561001557600080fd5b50610cb1806100256000396000f3fe608060405260043610610057576000357c0100000000000000000000000000000000000000000000000000000000900463ffffffff16806351dcce031461005c578063adce2812146100af578063b2dd121214610238575b600080fd5b34801561006857600080fd5b506100956004803603602081101561007f57600080fd5b8101908080359060200190929190505050610392565b604051808215151515815260200191505060405180910390f35b3480156100bb57600080fd5b50610236600480360360808110156100d257600080fd5b8101908080359060200190929190803573ffffffffffffffffffffffffffffffffffffffff1690602001909291908035906020019064010000000081111561011957600080fd5b82018360208201111561012b57600080fd5b8035906020019184600183028401116401000000008311171561014d57600080fd5b91908080601f016020809104026020016040519081016040528093929190818152602001838380828437600081840152601f19601f820116905080830192505050505050509192919290803590602001906401000000008111156101b057600080fd5b8201836020820111156101c257600080fd5b803590602001918460018302840111640100000000831117156101e457600080fd5b91908080601f016020809104026020016040519081016040528093929190818152602001838380828437600081840152601f19601f8201169050808301925050505050505091929192905050506105ff565b005b34801561024457600080fd5b506102716004803603602081101561025b57600080fd5b81019080803590602001909291905050506108f7565b604051808581526020018473ffffffffffffffffffffffffffffffffffffffff1673ffffffffffffffffffffffffffffffffffffffff1681526020018060200180602001838103835285818151815260200191508051906020019080838360005b838110156102ed5780820151818401526020810190506102d2565b50505050905090810190601f16801561031a5780820380516001836020036101000a031916815260200191505b50838103825284818151815260200191508051906020019080838360005b83811015610353578082015181840152602081019050610338565b50505050905090810190601f1680156103805780820380516001836020036101000a031916815260200191505b50965050505050505060405180910390f35b600061039c610b64565b6000838154811015156103ab57fe5b90600052602060002090600a020160c06040519081016040529081600082015481526020016001820160009054906101000a900473ffffffffffffffffffffffffffffffffffffffff1673ffffffffffffffffffffffffffffffffffffffff1673ffffffffffffffffffffffffffffffffffffffff168152602001600282018054600181600116156101000203166002900480601f0160208091040260200160405190810160405280929190818152602001828054600181600116156101000203166002900480156104be5780601f10610493576101008083540402835291602001916104be565b820191906000526020600020905b8154815290600101906020018083116104a157829003601f168201915b50505050508152602001600382016060604051908101604052908160008201548152602001600182015481526020016002820154815250508152602001600682016060604051908101604052908160008201548152602001600182015481526020016002820154815250508152602001600982018054600181600116156101000203166002900480601f0160208091040260200160405190810160405280929190818152602001828054600181600116156101000203166002900480156105c65780601f1061059b576101008083540402835291602001916105c6565b820191906000526020600020905b8154815290600101906020018083116105a957829003601f168201915b5050505050815250509050600081608001516040015190506107e38110156105f3576000925050506105fa565b6001925050505b919050565b610607610b64565b60c0604051908101604052808681526020018573ffffffffffffffffffffffffffffffffffffffff16815260200184815260200160606040519081016040528060018152602001600181526020016107e3815250815260200160606040519081016040528060018152602001600c81526020016107e381525081526020018381525090507fd27fa00f18f740914b40c1392466b3fb44614c8ef252e12e2a2ff40ba7ccd2ec85858585604051808581526020018473ffffffffffffffffffffffffffffffffffffffff1673ffffffffffffffffffffffffffffffffffffffff1681526020018060200180602001838103835285818151815260200191508051906020019080838360005b8381101561072c578082015181840152602081019050610711565b50505050905090810190601f1680156107595780820380516001836020036101000a031916815260200191505b50838103825284818151815260200191508051906020019080838360005b83811015610792578082015181840152602081019050610777565b50505050905090810190601f1680156107bf5780820380516001836020036101000a031916815260200191505b50965050505050505060405180910390a16000819080600181540180825580915050906001820390600052602060002090600a0201600090919290919091506000820151816000015560208201518160010160006101000a81548173ffffffffffffffffffffffffffffffffffffffff021916908373ffffffffffffffffffffffffffffffffffffffff160217905550604082015181600201908051906020019061086b929190610bbe565b506060820151816003016000820151816000015560208201518160010155604082015181600201555050608082015181600601600082015181600001556020820151816001015560408201518160020155505060a08201518160090190805190602001906108da929190610bbe565b505050506001600081548092919060010191905055505050505050565b600080606080610905610b64565b60008681548110151561091457fe5b90600052602060002090600a020160c06040519081016040529081600082015481526020016001820160009054906101000a900473ffffffffffffffffffffffffffffffffffffffff1673ffffffffffffffffffffffffffffffffffffffff1673ffffffffffffffffffffffffffffffffffffffff168152602001600282018054600181600116156101000203166002900480601f016020809104026020016040519081016040528092919081815260200182805460018160011615610100020316600290048015610a275780601f106109fc57610100808354040283529160200191610a27565b820191906000526020600020905b815481529060010190602001808311610a0a57829003601f168201915b50505050508152602001600382016060604051908101604052908160008201548152602001600182015481526020016002820154815250508152602001600682016060604051908101604052908160008201548152602001600182015481526020016002820154815250508152602001600982018054600181600116156101000203166002900480601f016020809104026020016040519081016040528092919081815260200182805460018160011615610100020316600290048015610b2f5780601f10610b0457610100808354040283529160200191610b2f565b820191906000526020600020905b815481529060010190602001808311610b1257829003601f168201915b50505050508152505090508060000151816020015182604001518360a001518191508090509450945094509450509193509193565b6101406040519081016040528060008152602001600073ffffffffffffffffffffffffffffffffffffffff16815260200160608152602001610ba4610c3e565b8152602001610bb1610c3e565b8152602001606081525090565b828054600181600116156101000203166002900490600052602060002090601f016020900481019282601f10610bff57805160ff1916838001178555610c2d565b82800160010185558215610c2d579182015b82811115610c2c578251825591602001919060010190610c11565b5b509050610c3a9190610c60565b5090565b6060604051908101604052806000815260200160008152602001600081525090565b610c8291905b80821115610c7e576000816000905550600101610c66565b5090565b9056fea165627a7a72305820b3fda6c1f723d848055c5d9c704c83aa343e9f5669ef4796c36cb0a3439c078c0029",
  "source": "pragma solidity ^0.5.0;\r\n\r\ncontract exportLicense\r\n{\r\n    struct date\r\n    {\r\n        uint day;\r\n        uint month;\r\n        uint year;\r\n    }\r\n    \r\n    struct License\r\n    {\r\n        uint id;\r\n        address exporter;\r\n        string exporterName;\r\n        date issueDate;\r\n        date expiryDate;\r\n        string description;\r\n    }\r\n\r\n    License[] licenses;\r\n    int index = 0;\r\n\r\n    event licenseinfo(uint id,\r\n        address exporter,\r\n        string exporterName,\r\n        string description);\r\n\r\n    function setLicense(\r\n        uint _id,\r\n        address _exporter,\r\n        string memory _exporterName,\r\n        string memory _description) public \r\n        {\r\n            License memory license = License({\r\n                id:_id,\r\n                exporter:_exporter,\r\n                exporterName: _exporterName,\r\n                issueDate : date({day:1,month:1,year:2019}),\r\n                expiryDate: date({day:1,month:12,year:2019}),\r\n                description : _description\r\n            });\r\n            emit licenseinfo(_id,_exporter,_exporterName,_description);\r\n            licenses.push(license);\r\n            index++;\r\n        }\r\n\r\n    function getLicense(uint _index) view public returns(uint,address,string memory,string memory)\r\n    {\r\n        License memory license = licenses[_index];\r\n        return (license.id,license.exporter,license.exporterName,license.description);\r\n    }\r\n\r\n    function checkIfValid(uint _index) public returns(bool)\r\n    {\r\n        License memory license = licenses[_index];\r\n        uint year1 = license.expiryDate.year;\r\n\r\n        if(year1<2019)\r\n            return false;\r\n        return true;\r\n    }\r\n\r\n}",
  "sourcePath": "C:/Users/pruthvitaranath/Desktop/project/contracts/exportLicense.sol",
  "compiler": {
    "name": "solc",
    "version": "0.5.0+commit.1d4f565a.Emscripten.clang"
  },
  "schemaVersion": "3.0.9",
  "updatedAt": "2019-06-10T07:13:04.496Z",
  "devdoc": {
    "methods": {}
  },
  "userdoc": {
    "methods": {}
  }
}